{
  "contractName": "Inbox",
  "abi": [
    {
      "inputs": [],
      "stateMutability": "nonpayable",
      "type": "constructor"
    },
    {
      "anonymous": false,
      "inputs": [
        {
          "indexed": false,
          "internalType": "string",
          "name": "response",
          "type": "string"
        }
      ],
      "name": "IpfsResponse",
      "type": "event"
    },
    {
      "anonymous": false,
      "inputs": [
        {
          "indexed": false,
          "internalType": "string",
          "name": "_hashValue",
          "type": "string"
        },
        {
          "indexed": false,
          "internalType": "string",
          "name": "_address",
          "type": "string"
        }
      ],
      "name": "IpfsSent",
      "type": "event"
    },
    {
      "inputs": [
        {
          "internalType": "string",
          "name": "_address",
          "type": "string"
        },
        {
          "internalType": "string",
          "name": "_hashValue",
          "type": "string"
        }
      ],
      "name": "sendIpfs",
      "outputs": [],
      "stateMutability": "nonpayable",
      "type": "function"
    },
    {
      "inputs": [
        {
          "internalType": "string",
          "name": "_address",
          "type": "string"
        }
      ],
      "name": "getHash",
      "outputs": [
        {
          "internalType": "string",
          "name": "",
          "type": "string"
        }
      ],
      "stateMutability": "view",
      "type": "function",
      "constant": true
    }
  ],
  "bytecode": "0x608060405234801561001057600080fd5b50610763806100206000396000f3fe608060405234801561001057600080fd5b5060043610610053576000357c0100000000000000000000000000000000000000000000000000000000900480634918edf1146100585780635b6beeb9146101aa575b600080fd5b6101a86004803603604081101561006e57600080fd5b810190808035906020019064010000000081111561008b57600080fd5b82018360208201111561009d57600080fd5b803590602001918460018302840111640100000000831117156100bf57600080fd5b91908080601f016020809104026020016040519081016040528093929190818152602001838380828437600081840152601f19601f8201169050808301925050505050505091929192908035906020019064010000000081111561012257600080fd5b82018360208201111561013457600080fd5b8035906020019184600183028401116401000000008311171561015657600080fd5b91908080601f016020809104026020016040519081016040528093929190818152602001838380828437600081840152601f19601f8201169050808301925050505050505091929192905050506102de565b005b610263600480360360208110156101c057600080fd5b81019080803590602001906401000000008111156101dd57600080fd5b8201836020820111156101ef57600080fd5b8035906020019184600183028401116401000000008311171561021157600080fd5b91908080601f016020809104026020016040519081016040528093929190818152602001838380828437600081840152601f19601f820116905080830192505050505050509192919290505050610580565b6040518080602001828103825283818151815260200191508051906020019080838360005b838110156102a3578082015181840152602081019050610288565b50505050905090810190601f1680156102d05780820380516001836020036101000a031916815260200191505b509250505060405180910390f35b6000826040518082805190602001908083835b6020831061031457805182526020820191506020810190506020830392506102f1565b6001836020036101000a03801982511681845116808217855250505050505090500191505090815260200160405180910390208054600181600116156101000203166002900480601f0160208091040260200160405190810160405280929190818152602001828054600181600116156101000203166002900480156103db5780601f106103b0576101008083540402835291602001916103db565b820191906000526020600020905b8154815290600101906020018083116103be57829003601f168201915b5050505050606081905060008151146103f357600080fd5b826000856040518082805190602001908083835b6020831061042a5780518252602082019150602081019050602083039250610407565b6001836020036101000a03801982511681845116808217855250505050505090500191505090815260200160405180910390209080519060200190610470929190610690565b507fbfcdc1ebeb098cc77aacb327b52467c8e6fe56e8e50ec4cd06a7d486322814388385604051808060200180602001838103835285818151815260200191508051906020019080838360005b838110156104d85780820151818401526020810190506104bd565b50505050905090810190601f1680156105055780820380516001836020036101000a031916815260200191505b50838103825284818151815260200191508051906020019080838360005b8381101561053e578082015181840152602081019050610523565b50505050905090810190601f16801561056b5780820380516001836020036101000a031916815260200191505b5094505050505060405180910390a150505050565b6060806000836040518082805190602001908083835b602083106105b95780518252602082019150602081019050602083039250610596565b6001836020036101000a03801982511681845116808217855250505050505090500191505090815260200160405180910390208054600181600116156101000203166002900480601f0160208091040260200160405190810160405280929190818152602001828054600181600116156101000203166002900480156106805780601f1061065557610100808354040283529160200191610680565b820191906000526020600020905b81548152906001019060200180831161066357829003601f168201915b5050505050905080915050919050565b828054600181600116156101000203166002900490600052602060002090601f016020900481019282601f106106d157805160ff19168380011785556106ff565b828001600101855582156106ff579182015b828111156106fe5782518255916020019190600101906106e3565b5b50905061070c9190610710565b5090565b5b80821115610729576000816000905550600101610711565b509056fea2646970667358221220c85e34797f9dc4fa89e80ff727f9e826d076e8bf125aeeff361e73dd155332d564736f6c63430007000033",
  "immutableReferences": {},
  "source": "// SPDX-License-Identifier: GPL-3.0\npragma solidity >=0.7.0 <0.9.0;\n\n\n/**\n  @title Inbox\n  @dev handles the IPFS storage functionality\n */\ncontract Inbox {\n\n  mapping(string => string) ipfsInbox;\n\n  // events\n  event IpfsSent(string _hashValue, string _address);\n  event IpfsResponse(string response);\n\n  // empty contructor that creates the instance of a contract\n  constructor() { }\n\n  // Modifier for the input hash\n  modifier notFull (string memory _string) {\n    bytes memory stringTest = bytes(_string);\n    require(stringTest.length==0);\n    _;\n  }\n\n/**\n  @dev sends the ipfs inbox data to blockchain\n */\n  function sendIpfs(string memory _address, string memory _hashValue) public notFull(ipfsInbox[_address]) {\n    ipfsInbox[_address] = _hashValue;\n    emit IpfsSent(_hashValue, _address);\n  }\n\n/**\n  @dev returns the ipfs inbox hash off-chain\n */\n  function getHash(string memory _address) public view returns(string memory) {\n    string memory _hashValue = ipfsInbox[_address];\n    return _hashValue;\n  }\n\n}",
  "sourcePath": "/Users/ray/Desktop/music-app/client/contracts/Inbox.sol",
  "compiler": {
    "name": "solc",
    "version": "0.7.0+commit.9e61f92b.Emscripten.clang"
  },
  "schemaVersion": "3.3.4",
  "updatedAt": "2021-06-27T03:59:15.975Z",
  "networkType": "ethereum",
  "devdoc": {
    "details": "handles the IPFS storage functionality",
    "kind": "dev",
    "methods": {
      "getHash(string)": {
        "details": "returns the ipfs inbox hash off-chain"
      },
      "sendIpfs(string,string)": {
        "details": "sends the ipfs inbox data to blockchain"
      }
    },
    "title": "Inbox",
    "version": 1
  },
  "userdoc": {
    "kind": "user",
    "methods": {},
    "version": 1
  }
}